{
  "contractName": "NftExchange",
  "abi": [
    {
      "anonymous": false,
      "inputs": [
        {
          "indexed": false,
          "internalType": "address",
          "name": "ListserTokenAddress",
          "type": "address"
        },
        {
          "indexed": false,
          "internalType": "uint256",
          "name": "ListerTokenId",
          "type": "uint256"
        },
        {
          "indexed": false,
          "internalType": "address",
          "name": "BuyerAddress",
          "type": "address"
        },
        {
          "indexed": false,
          "internalType": "address",
          "name": "BuyerTokenAddress",
          "type": "address"
        },
        {
          "indexed": false,
          "internalType": "uint256",
          "name": "BuyerTokenId",
          "type": "uint256"
        },
        {
          "indexed": false,
          "internalType": "bytes32",
          "name": "OrderID",
          "type": "bytes32"
        }
      ],
      "name": "newOrder",
      "type": "event"
    },
    {
      "inputs": [
        {
          "internalType": "address",
          "name": "",
          "type": "address"
        },
        {
          "internalType": "bytes32",
          "name": "",
          "type": "bytes32"
        }
      ],
      "name": "OrderInfo",
      "outputs": [
        {
          "internalType": "address",
          "name": "ListerTokenAddress",
          "type": "address"
        },
        {
          "internalType": "uint256",
          "name": "ListerTokenId",
          "type": "uint256"
        },
        {
          "internalType": "address",
          "name": "BuyerTokenAddress",
          "type": "address"
        },
        {
          "internalType": "uint256",
          "name": "BuyerTokenId",
          "type": "uint256"
        },
        {
          "internalType": "address",
          "name": "ERC20Address",
          "type": "address"
        },
        {
          "internalType": "uint256",
          "name": "ERC20Amount",
          "type": "uint256"
        },
        {
          "internalType": "uint256",
          "name": "EthAmount",
          "type": "uint256"
        },
        {
          "internalType": "uint256",
          "name": "Type",
          "type": "uint256"
        }
      ],
      "stateMutability": "view",
      "type": "function"
    },
    {
      "inputs": [
        {
          "internalType": "address",
          "name": "_listerPublicKey",
          "type": "address"
        },
        {
          "internalType": "address",
          "name": "_listerContractPublicKey",
          "type": "address"
        },
        {
          "internalType": "uint256",
          "name": "_listerId",
          "type": "uint256"
        }
      ],
      "name": "_createOrderId",
      "outputs": [
        {
          "internalType": "bytes32",
          "name": "",
          "type": "bytes32"
        }
      ],
      "stateMutability": "view",
      "type": "function"
    },
    {
      "inputs": [
        {
          "internalType": "address",
          "name": "Lister",
          "type": "address"
        },
        {
          "internalType": "address",
          "name": "BuyerContract",
          "type": "address"
        },
        {
          "internalType": "uint256",
          "name": "BuyerID",
          "type": "uint256"
        },
        {
          "internalType": "address",
          "name": "ListerContract",
          "type": "address"
        },
        {
          "internalType": "uint256",
          "name": "ListerID",
          "type": "uint256"
        }
      ],
      "name": "makeNftToNft",
      "outputs": [
        {
          "internalType": "bytes32",
          "name": "orderID",
          "type": "bytes32"
        }
      ],
      "stateMutability": "nonpayable",
      "type": "function"
    },
    {
      "inputs": [
        {
          "internalType": "address",
          "name": "Lister",
          "type": "address"
        },
        {
          "internalType": "address",
          "name": "ListerContract",
          "type": "address"
        },
        {
          "internalType": "uint256",
          "name": "ListerID",
          "type": "uint256"
        },
        {
          "internalType": "address",
          "name": "Erc20Contract",
          "type": "address"
        },
        {
          "internalType": "uint256",
          "name": "Amount",
          "type": "uint256"
        }
      ],
      "name": "makeNftToERC20",
      "outputs": [
        {
          "internalType": "bytes32",
          "name": "orderID",
          "type": "bytes32"
        }
      ],
      "stateMutability": "payable",
      "type": "function"
    },
    {
      "inputs": [
        {
          "internalType": "address",
          "name": "Lister",
          "type": "address"
        },
        {
          "internalType": "address",
          "name": "ListerContract",
          "type": "address"
        },
        {
          "internalType": "uint256",
          "name": "ListerID",
          "type": "uint256"
        }
      ],
      "name": "makeNftToETH",
      "outputs": [
        {
          "internalType": "bytes32",
          "name": "orderID",
          "type": "bytes32"
        }
      ],
      "stateMutability": "payable",
      "type": "function"
    },
    {
      "inputs": [
        {
          "internalType": "address",
          "name": "Buyer",
          "type": "address"
        },
        {
          "internalType": "address payable",
          "name": "Reciver",
          "type": "address"
        },
        {
          "internalType": "bytes32",
          "name": "OrderID",
          "type": "bytes32"
        }
      ],
      "name": "takeOrder",
      "outputs": [
        {
          "internalType": "bool",
          "name": "",
          "type": "bool"
        }
      ],
      "stateMutability": "nonpayable",
      "type": "function"
    }
  ],
  "bytecode": "0x608060405234801561001057600080fd5b50611d44806100206000396000f3fe608060405260043610610072576000357c01000000000000000000000000000000000000000000000000000000009004806311e17794146100775780635ae712ee146100b457806363de0316146100f15780636a39c52414610121578063ab8fbee914610165578063b4f26a9214610195575b600080fd5b34801561008357600080fd5b5061009e60048036038101906100999190611703565b6101d2565b6040516100ab9190611b70565b60405180910390f35b3480156100c057600080fd5b506100db60048036038101906100d69190611752565b610219565b6040516100e89190611b70565b60405180910390f35b61010b60048036038101906101069190611752565b6106c4565b6040516101189190611b70565b60405180910390f35b34801561012d57600080fd5b50610148600480360381019061014391906117c9565b6109f1565b60405161015c989796959493929190611ad7565b60405180910390f35b61017f600480360381019061017a9190611703565b610aa6565b60405161018c9190611b70565b60405180910390f35b3480156101a157600080fd5b506101bc60048036038101906101b791906116b4565b610c58565b6040516101c99190611b55565b60405180910390f35b60008383836101e042610e91565b805190602001206040516020016101fa9493929190611a31565b6040516020818303038152906040528051906020012090509392505050565b60003073ffffffffffffffffffffffffffffffffffffffff168573ffffffffffffffffffffffffffffffffffffffff1663081812fc866040518263ffffffff167c01000000000000000000000000000000000000000000000000000000000281526004016102879190611c0b565b60206040518083038186803b15801561029f57600080fd5b505afa1580156102b3573d6000803e3d6000fd5b505050506040513d601f19601f820116820180604052508101906102d7919061168b565b73ffffffffffffffffffffffffffffffffffffffff161461032d576040517f08c379a000000000000000000000000000000000000000000000000000000000815260040161032490611beb565b60405180910390fd5b3373ffffffffffffffffffffffffffffffffffffffff168573ffffffffffffffffffffffffffffffffffffffff16636352211e866040518263ffffffff167c01000000000000000000000000000000000000000000000000000000000281526004016103999190611c0b565b60206040518083038186803b1580156103b157600080fd5b505afa1580156103c5573d6000803e3d6000fd5b505050506040513d601f19601f820116820180604052508101906103e9919061168b565b73ffffffffffffffffffffffffffffffffffffffff161461043f576040517f08c379a000000000000000000000000000000000000000000000000000000000815260040161043690611bcb565b60405180910390fd5b600061044c8785856101d2565b9050836000803373ffffffffffffffffffffffffffffffffffffffff1673ffffffffffffffffffffffffffffffffffffffff168152602001908152602001600020600083815260200190815260200160002060000160006101000a81548173ffffffffffffffffffffffffffffffffffffffff021916908373ffffffffffffffffffffffffffffffffffffffff160217905550826000803373ffffffffffffffffffffffffffffffffffffffff1673ffffffffffffffffffffffffffffffffffffffff168152602001908152602001600020600083815260200190815260200160002060010181905550856000803373ffffffffffffffffffffffffffffffffffffffff1673ffffffffffffffffffffffffffffffffffffffff168152602001908152602001600020600083815260200190815260200160002060020160006101000a81548173ffffffffffffffffffffffffffffffffffffffff021916908373ffffffffffffffffffffffffffffffffffffffff160217905550846000803373ffffffffffffffffffffffffffffffffffffffff1673ffffffffffffffffffffffffffffffffffffffff16815260200190815260200160002060008381526020019081526020016000206003018190555060016000803373ffffffffffffffffffffffffffffffffffffffff1673ffffffffffffffffffffffffffffffffffffffff1681526020019081526020016000206000838152602001908152602001600020600701819055507f9991f8cc27f730c85d77a2e175be8397c7bff1416129146fbdc321c5ac53fe698484338989866040516106af96959493929190611a76565b60405180910390a18091505095945050505050565b6000818373ffffffffffffffffffffffffffffffffffffffff166370a08231336040518263ffffffff167c010000000000000000000000000000000000000000000000000000000002815260040161071c91906119df565b60206040518083038186803b15801561073457600080fd5b505afa158015610748573d6000803e3d6000fd5b505050506040513d601f19601f8201168201806040525081019061076c919061182e565b10156107ad576040517f08c379a00000000000000000000000000000000000000000000000000000000081526004016107a490611b8b565b60405180910390fd5b60006107ba8787876101d2565b9050856000803373ffffffffffffffffffffffffffffffffffffffff1673ffffffffffffffffffffffffffffffffffffffff168152602001908152602001600020600083815260200190815260200160002060000160006101000a81548173ffffffffffffffffffffffffffffffffffffffff021916908373ffffffffffffffffffffffffffffffffffffffff160217905550846000803373ffffffffffffffffffffffffffffffffffffffff1673ffffffffffffffffffffffffffffffffffffffff168152602001908152602001600020600083815260200190815260200160002060010181905550836000803373ffffffffffffffffffffffffffffffffffffffff1673ffffffffffffffffffffffffffffffffffffffff168152602001908152602001600020600083815260200190815260200160002060040160006101000a81548173ffffffffffffffffffffffffffffffffffffffff021916908373ffffffffffffffffffffffffffffffffffffffff160217905550826000803373ffffffffffffffffffffffffffffffffffffffff1673ffffffffffffffffffffffffffffffffffffffff16815260200190815260200160002060008381526020019081526020016000206005018190555060026000803373ffffffffffffffffffffffffffffffffffffffff1673ffffffffffffffffffffffffffffffffffffffff1681526020019081526020016000206000838152602001908152602001600020600701819055508091505095945050505050565b6000602052816000526040600020602052806000526040600020600091509150508060000160009054906101000a900473ffffffffffffffffffffffffffffffffffffffff16908060010154908060020160009054906101000a900473ffffffffffffffffffffffffffffffffffffffff16908060030154908060040160009054906101000a900473ffffffffffffffffffffffffffffffffffffffff16908060050154908060060154908060070154905088565b600080610ab48585856101d2565b9050836000803373ffffffffffffffffffffffffffffffffffffffff1673ffffffffffffffffffffffffffffffffffffffff168152602001908152602001600020600083815260200190815260200160002060000160006101000a81548173ffffffffffffffffffffffffffffffffffffffff021916908373ffffffffffffffffffffffffffffffffffffffff160217905550826000803373ffffffffffffffffffffffffffffffffffffffff1673ffffffffffffffffffffffffffffffffffffffff168152602001908152602001600020600083815260200190815260200160002060010181905550346000803373ffffffffffffffffffffffffffffffffffffffff1673ffffffffffffffffffffffffffffffffffffffff16815260200190815260200160002060008381526020019081526020016000206006018190555060036000803373ffffffffffffffffffffffffffffffffffffffff1673ffffffffffffffffffffffffffffffffffffffff168152602001908152602001600020600083815260200190815260200160002060070181905550809150509392505050565b600060016000808673ffffffffffffffffffffffffffffffffffffffff1673ffffffffffffffffffffffffffffffffffffffff1681526020019081526020016000206000848152602001908152602001600020600701541415610cc457610cbf8483610f14565b610d97565b60026000808673ffffffffffffffffffffffffffffffffffffffff1673ffffffffffffffffffffffffffffffffffffffff1681526020019081526020016000206000848152602001908152602001600020600701541415610d2e57610d298483611071565b610d96565b60036000808673ffffffffffffffffffffffffffffffffffffffff1673ffffffffffffffffffffffffffffffffffffffff1681526020019081526020016000206000848152602001908152602001600020600701541415610d9557610d948484846111ef565b5b5b5b6000808573ffffffffffffffffffffffffffffffffffffffff1673ffffffffffffffffffffffffffffffffffffffff1681526020019081526020016000206000838152602001908152602001600020600080820160006101000a81549073ffffffffffffffffffffffffffffffffffffffff021916905560018201600090556002820160006101000a81549073ffffffffffffffffffffffffffffffffffffffff021916905560038201600090556004820160006101000a81549073ffffffffffffffffffffffffffffffffffffffff02191690556005820160009055600682016000905560078201600090555050600190509392505050565b6060602067ffffffffffffffff811115610ed4577f4e487b7100000000000000000000000000000000000000000000000000000000600052604160045260246000fd5b6040519080825280601f01601f191660200182016040528015610f065781602001600182028036833780820191505090505b509050816020820152919050565b610f1e82826112cf565b6000808373ffffffffffffffffffffffffffffffffffffffff1673ffffffffffffffffffffffffffffffffffffffff168152602001908152602001600020600082815260200190815260200160002060020160009054906101000a900473ffffffffffffffffffffffffffffffffffffffff1673ffffffffffffffffffffffffffffffffffffffff166323b872dd83336000808773ffffffffffffffffffffffffffffffffffffffff1673ffffffffffffffffffffffffffffffffffffffff1681526020019081526020016000206000868152602001908152602001600020600301546040518463ffffffff167c010000000000000000000000000000000000000000000000000000000002815260040161103b939291906119fa565b600060405180830381600087803b15801561105557600080fd5b505af1158015611069573d6000803e3d6000fd5b505050505050565b61107b82826112cf565b6000808373ffffffffffffffffffffffffffffffffffffffff1673ffffffffffffffffffffffffffffffffffffffff168152602001908152602001600020600082815260200190815260200160002060040160009054906101000a900473ffffffffffffffffffffffffffffffffffffffff1673ffffffffffffffffffffffffffffffffffffffff166323b872dd83336000808773ffffffffffffffffffffffffffffffffffffffff1673ffffffffffffffffffffffffffffffffffffffff1681526020019081526020016000206000868152602001908152602001600020600501546040518463ffffffff167c0100000000000000000000000000000000000000000000000000000000028152600401611198939291906119fa565b602060405180830381600087803b1580156111b257600080fd5b505af11580156111c6573d6000803e3d6000fd5b505050506040513d601f19601f820116820180604052508101906111ea9190611805565b505050565b8173ffffffffffffffffffffffffffffffffffffffff163373ffffffffffffffffffffffffffffffffffffffff161461122757600080fd5b61123183826112cf565b8173ffffffffffffffffffffffffffffffffffffffff166108fc6000808673ffffffffffffffffffffffffffffffffffffffff1673ffffffffffffffffffffffffffffffffffffffff1681526020019081526020016000206000848152602001908152602001600020600601549081150290604051600060405180830381858888f193505050501580156112c9573d6000803e3d6000fd5b50505050565b3373ffffffffffffffffffffffffffffffffffffffff166000808473ffffffffffffffffffffffffffffffffffffffff1673ffffffffffffffffffffffffffffffffffffffff168152602001908152602001600020600083815260200190815260200160002060000160009054906101000a900473ffffffffffffffffffffffffffffffffffffffff1673ffffffffffffffffffffffffffffffffffffffff16636352211e6000808673ffffffffffffffffffffffffffffffffffffffff1673ffffffffffffffffffffffffffffffffffffffff1681526020019081526020016000206000858152602001908152602001600020600101546040518263ffffffff167c01000000000000000000000000000000000000000000000000000000000281526004016113ff9190611c0b565b60206040518083038186803b15801561141757600080fd5b505afa15801561142b573d6000803e3d6000fd5b505050506040513d601f19601f8201168201806040525081019061144f919061168b565b73ffffffffffffffffffffffffffffffffffffffff16146114a5576040517f08c379a000000000000000000000000000000000000000000000000000000000815260040161149c90611bab565b60405180910390fd5b6000808373ffffffffffffffffffffffffffffffffffffffff1673ffffffffffffffffffffffffffffffffffffffff168152602001908152602001600020600082815260200190815260200160002060000160009054906101000a900473ffffffffffffffffffffffffffffffffffffffff1673ffffffffffffffffffffffffffffffffffffffff166323b872dd33846000808773ffffffffffffffffffffffffffffffffffffffff1673ffffffffffffffffffffffffffffffffffffffff1681526020019081526020016000206000868152602001908152602001600020600101546040518463ffffffff167c01000000000000000000000000000000000000000000000000000000000281526004016115c2939291906119fa565b600060405180830381600087803b1580156115dc57600080fd5b505af11580156115f0573d6000803e3d6000fd5b505050505050565b60008135905061160781611c9b565b92915050565b60008151905061161c81611c9b565b92915050565b60008135905061163181611cb2565b92915050565b60008151905061164681611cc9565b92915050565b60008135905061165b81611ce0565b92915050565b60008135905061167081611cf7565b92915050565b60008151905061168581611cf7565b92915050565b60006020828403121561169d57600080fd5b60006116ab8482850161160d565b91505092915050565b6000806000606084860312156116c957600080fd5b60006116d7868287016115f8565b93505060206116e886828701611622565b92505060406116f98682870161164c565b9150509250925092565b60008060006060848603121561171857600080fd5b6000611726868287016115f8565b9350506020611737868287016115f8565b925050604061174886828701611661565b9150509250925092565b600080600080600060a0868803121561176a57600080fd5b6000611778888289016115f8565b9550506020611789888289016115f8565b945050604061179a88828901611661565b93505060606117ab888289016115f8565b92505060806117bc88828901611661565b9150509295509295909350565b600080604083850312156117dc57600080fd5b60006117ea858286016115f8565b92505060206117fb8582860161164c565b9150509250929050565b60006020828403121561181757600080fd5b600061182584828501611637565b91505092915050565b60006020828403121561184057600080fd5b600061184e84828501611676565b91505092915050565b61186081611c37565b82525050565b61186f81611c5b565b82525050565b61187e81611c67565b82525050565b6000611891602283611c26565b91507f73656e64657220646f6573206e6f74206861766520656e6f7567687420636f6960008301527f6e730000000000000000000000000000000000000000000000000000000000006020830152604082019050919050565b60006118f7601e83611c26565b91507f6e6f74206f776e65722c2063616e6e6f7420657863757465206f7264657200006000830152602082019050919050565b6000611937601e83611c26565b91507f6e6f74206f776e65722c2063616e6e6f7420637265617465206f7264657200006000830152602082019050919050565b6000611977602183611c26565b91507f6e6f7420617070726f7665642c2063616e6e6f7420637265617465206f72646560008301527f72000000000000000000000000000000000000000000000000000000000000006020830152604082019050919050565b6119d981611c91565b82525050565b60006020820190506119f46000830184611857565b92915050565b6000606082019050611a0f6000830186611857565b611a1c6020830185611857565b611a2960408301846119d0565b949350505050565b6000608082019050611a466000830187611857565b611a536020830186611857565b611a6060408301856119d0565b611a6d6060830184611875565b95945050505050565b600060c082019050611a8b6000830189611857565b611a9860208301886119d0565b611aa56040830187611857565b611ab26060830186611857565b611abf60808301856119d0565b611acc60a0830184611875565b979650505050505050565b600061010082019050611aed600083018b611857565b611afa602083018a6119d0565b611b076040830189611857565b611b1460608301886119d0565b611b216080830187611857565b611b2e60a08301866119d0565b611b3b60c08301856119d0565b611b4860e08301846119d0565b9998505050505050505050565b6000602082019050611b6a6000830184611866565b92915050565b6000602082019050611b856000830184611875565b92915050565b60006020820190508181036000830152611ba481611884565b9050919050565b60006020820190508181036000830152611bc4816118ea565b9050919050565b60006020820190508181036000830152611be48161192a565b9050919050565b60006020820190508181036000830152611c048161196a565b9050919050565b6000602082019050611c2060008301846119d0565b92915050565b600082825260208201905092915050565b6000611c4282611c71565b9050919050565b6000611c5482611c71565b9050919050565b60008115159050919050565b6000819050919050565b600073ffffffffffffffffffffffffffffffffffffffff82169050919050565b6000819050919050565b611ca481611c37565b8114611caf57600080fd5b50565b611cbb81611c49565b8114611cc657600080fd5b50565b611cd281611c5b565b8114611cdd57600080fd5b50565b611ce981611c67565b8114611cf457600080fd5b50565b611d0081611c91565b8114611d0b57600080fd5b5056fea2646970667358221220dc9cd7dbf179bea79267f7dbf4fd7f9f018b2624e88667d39cc377b952ce5e3464736f6c63430008000033",
  "immutableReferences": {},
  "source": "// SPDX-License-Identifier: MIT\npragma solidity >=0.4.22 <0.9.0;\n\nimport \"./Utils/operations.sol\";\nimport \"./Interface/INftExchange.sol\";\n\nimport \"@openzeppelin/contracts/token/ERC721/IERC721.sol\";\nimport \"@openzeppelin/contracts/token/ERC20/IERC20.sol\";\n\n\n// For OrderDetials.Type\n\n// 1 = Nft -> Nft\n// 2 = Nft -> Erc20\n// 3 = Nft -> ETH\n\n// 4 = Nft -> Nft + Erc20\n// 5 = Nft -> Nft + Erc20 + ETH\n// 6 = Nft -> Nft + ETH\n// 7 = Nft -> ERC20 + ETH\n\n// 8 = Nft -> Multi *\n\ncontract NftExchange is INftExchange, Operations {\n    \n    event newOrder(\n        address ListserTokenAddress,\n        uint256 ListerTokenId,\n        address BuyerAddress,\n        address BuyerTokenAddress,\n        uint256 BuyerTokenId,\n        bytes32 OrderID\n    );\n\n    struct OrderDetials {\n        address ListerTokenAddress;\n        uint256 ListerTokenId;\n        address BuyerTokenAddress;\n        uint256 BuyerTokenId;\n        address ERC20Address;\n        uint256 ERC20Amount;\n        uint256 EthAmount;\n        uint256 Type;\n    }\n\n    mapping(address => mapping(bytes32 => OrderDetials)) public OrderInfo;\n\n    function makeNftToNft(\n        address Lister,\n        address BuyerContract,\n        uint256 BuyerID,\n        address ListerContract,\n        uint256 ListerID\n    ) public override returns (bytes32 orderID) {\n        require(\n            IERC721(BuyerContract).getApproved(BuyerID) == address(this),\n            \"not approved, cannot create order\"\n        );\n        require(\n            IERC721(BuyerContract).ownerOf(BuyerID) == msg.sender,\n            \"not owner, cannot create order\"\n        );\n\n        bytes32 OrderID = _createOrderId(Lister, ListerContract, ListerID);\n\n        OrderInfo[msg.sender][OrderID].ListerTokenAddress = ListerContract;\n        OrderInfo[msg.sender][OrderID].ListerTokenId = ListerID;\n        OrderInfo[msg.sender][OrderID].BuyerTokenAddress = BuyerContract;\n        OrderInfo[msg.sender][OrderID].BuyerTokenId = BuyerID;\n        OrderInfo[msg.sender][OrderID].Type = 1;\n\n        emit newOrder(\n            ListerContract,\n            ListerID,\n            msg.sender,\n            BuyerContract,\n            BuyerID,\n            OrderID\n        );\n\n        return(OrderID);\n    }\n\n    function makeNftToERC20(\n        address Lister,\n        address ListerContract,\n        uint256 ListerID,\n        address Erc20Contract,\n        uint256 Amount\n    ) public override payable returns (bytes32 orderID) {\n        //Add Check to make sure Erc20Contract address passes is Valid\n        require(\n            IERC20(Erc20Contract).balanceOf(msg.sender) >= Amount,\n            \"sender does not have enought coins\"\n        );\n\n        bytes32 OrderID = _createOrderId(Lister, ListerContract, ListerID);\n\n        OrderInfo[msg.sender][OrderID].ListerTokenAddress = ListerContract;\n        OrderInfo[msg.sender][OrderID].ListerTokenId = ListerID;\n        OrderInfo[msg.sender][OrderID].ERC20Address = Erc20Contract;\n        OrderInfo[msg.sender][OrderID].ERC20Amount = Amount;\n        OrderInfo[msg.sender][OrderID].Type = 2;\n\n        return (OrderID);\n    }\n\n    function makeNftToETH(\n        address Lister,\n        address ListerContract,\n        uint256 ListerID\n    ) public override payable returns (bytes32 orderID) {\n        bytes32 OrderID = _createOrderId(Lister, ListerContract, ListerID);\n\n        OrderInfo[msg.sender][OrderID].ListerTokenAddress = ListerContract;\n        OrderInfo[msg.sender][OrderID].ListerTokenId = ListerID;\n        OrderInfo[msg.sender][OrderID].EthAmount = msg.value;\n        OrderInfo[msg.sender][OrderID].Type = 3;\n\n        return(OrderID);\n    }\n\n    function takeOrder(address Buyer, address payable Reciver, bytes32 OrderID)\n        public\n        override\n        returns (bool)\n    {\n        if (OrderInfo[Buyer][OrderID].Type == 1) {\n            _takeNftToNft(Buyer, OrderID);\n        } else if (OrderInfo[Buyer][OrderID].Type == 2) {\n            _takeNftToErc20(Buyer, OrderID);\n        } else if (OrderInfo[Buyer][OrderID].Type == 3) {\n            _takeNftToEth(Buyer, Reciver, OrderID);\n        }\n\n        delete OrderInfo[Buyer][OrderID];\n        return(true);\n    }\n\n    function _transferListerNft(address _buyer, bytes32 _orderID) internal {\n        require(\n            IERC721(OrderInfo[_buyer][_orderID].ListerTokenAddress).ownerOf(\n                OrderInfo[_buyer][_orderID].ListerTokenId\n            ) == msg.sender,\n            \"not owner, cannot excute order\"\n        );\n\n        IERC721(OrderInfo[_buyer][_orderID].ListerTokenAddress).transferFrom(\n            msg.sender,\n            _buyer,\n            OrderInfo[_buyer][_orderID].ListerTokenId\n        );\n    }\n\n    function _takeNftToEth(address _buyer, address payable _reciver, bytes32 _orderID) internal {\n        require(msg.sender == _reciver);\n        _transferListerNft(_buyer, _orderID);\n\n        _reciver.transfer(OrderInfo[_buyer][_orderID].EthAmount);\n    }\n\n    function _takeNftToNft(address _buyer, bytes32 _orderID) internal {\n        _transferListerNft(_buyer, _orderID);\n\n        IERC721(OrderInfo[_buyer][_orderID].BuyerTokenAddress).transferFrom(\n            _buyer,\n            msg.sender,\n            OrderInfo[_buyer][_orderID].BuyerTokenId\n        );\n    }\n\n    function _takeNftToErc20(address _buyer, bytes32 _orderID) internal {\n        _transferListerNft(_buyer, _orderID);\n\n        IERC20(OrderInfo[_buyer][_orderID].ERC20Address).transferFrom(\n            _buyer,\n            msg.sender,\n            OrderInfo[_buyer][_orderID].ERC20Amount\n        );\n    }\n}",
  "sourcePath": "/Users/klongrich/myfiles/eth/github/nft_exchnage/contracts/NftExchange.sol",
  "compiler": {
    "name": "solc",
    "version": "0.8.0+commit.c7dfd78e.Linux.g++"
  },
  "schemaVersion": "3.4.1",
  "updatedAt": "2021-05-27T23:07:19.679Z",
  "devdoc": {
    "kind": "dev",
    "methods": {
      "makeNftToERC20(address,address,uint256,address,uint256)": {
        "details": "Creates an Offer of One NFT for a static amount of ERC20 tokens  ",
        "params": {
          "Amount": "The total number of ERC20 tokens being offered",
          "Erc20Contract": "Address of the ERC20 Token that is being offered",
          "ListerContract": "Address of the NFT that is Listed or Being asked for.",
          "ListerID": "ID of the NFT that is Listed or Being asked for.",
          "orderID": "Unqiue number that will save the order on chain. Emits: "
        }
      },
      "makeNftToETH(address,address,uint256)": {
        "details": "Creates an Offer of One NFT for a static amount of ERC20 tokens  ",
        "params": {
          "ListerContract": "Address of the NFT that is Listed or Being asked for.",
          "ListerID": "ID of the NFT that is Listed or Being asked for.",
          "orderID": "Unqiue number that will save the order on chain. Emits: "
        }
      },
      "makeNftToNft(address,address,uint256,address,uint256)": {
        "details": "Creates an Offer of One NFT for One other NFT  ",
        "params": {
          "BuyerContract": "Address of the NFT being preposed to the lister.",
          "BuyerID": "ID of the NFT being preposed to the lister.",
          "ListerContract": "Address of the NFT that is Listed or Being asked for.",
          "ListerID": "ID of the NFT that is Listed or Being asked for.",
          "orderID": "Unqiue number that will save the order on chain. Emits: "
        }
      }
    },
    "version": 1
  },
  "userdoc": {
    "kind": "user",
    "methods": {},
    "version": 1
  }
}