{
  "contractName": "NftExchange",
  "abi": [
    {
      "anonymous": false,
      "inputs": [
        {
          "indexed": false,
          "internalType": "address",
          "name": "ListserTokenAddress",
          "type": "address"
        },
        {
          "indexed": false,
          "internalType": "uint256",
          "name": "ListerTokenId",
          "type": "uint256"
        },
        {
          "indexed": false,
          "internalType": "address",
          "name": "BuyerAddress",
          "type": "address"
        },
        {
          "indexed": false,
          "internalType": "address",
          "name": "BuyerTokenAddress",
          "type": "address"
        },
        {
          "indexed": false,
          "internalType": "uint256",
          "name": "BuyerTokenId",
          "type": "uint256"
        },
        {
          "indexed": false,
          "internalType": "uint256",
          "name": "OrderID",
          "type": "uint256"
        }
      ],
      "name": "newOrder",
      "type": "event"
    },
    {
      "inputs": [
        {
          "internalType": "address",
          "name": "",
          "type": "address"
        },
        {
          "internalType": "uint256",
          "name": "",
          "type": "uint256"
        }
      ],
      "name": "OrderInfo",
      "outputs": [
        {
          "internalType": "address",
          "name": "ListerTokenAddress",
          "type": "address"
        },
        {
          "internalType": "uint256",
          "name": "ListerTokenId",
          "type": "uint256"
        },
        {
          "internalType": "address",
          "name": "BuyerTokenAddress",
          "type": "address"
        },
        {
          "internalType": "uint256",
          "name": "BuyerTokenId",
          "type": "uint256"
        },
        {
          "internalType": "address",
          "name": "ERC20Address",
          "type": "address"
        },
        {
          "internalType": "uint256",
          "name": "ERC20Amount",
          "type": "uint256"
        },
        {
          "internalType": "uint256",
          "name": "EthAmount",
          "type": "uint256"
        },
        {
          "internalType": "uint256",
          "name": "Type",
          "type": "uint256"
        }
      ],
      "stateMutability": "view",
      "type": "function",
      "constant": true
    },
    {
      "inputs": [
        {
          "internalType": "address",
          "name": "BuyerContract",
          "type": "address"
        },
        {
          "internalType": "uint256",
          "name": "BuyerID",
          "type": "uint256"
        },
        {
          "internalType": "address",
          "name": "ListerContract",
          "type": "address"
        },
        {
          "internalType": "uint256",
          "name": "ListerID",
          "type": "uint256"
        },
        {
          "internalType": "uint256",
          "name": "OrderID",
          "type": "uint256"
        }
      ],
      "name": "makeNftToNft",
      "outputs": [
        {
          "internalType": "bool",
          "name": "",
          "type": "bool"
        }
      ],
      "stateMutability": "nonpayable",
      "type": "function"
    },
    {
      "inputs": [
        {
          "internalType": "address",
          "name": "ListerContract",
          "type": "address"
        },
        {
          "internalType": "uint256",
          "name": "ListerID",
          "type": "uint256"
        },
        {
          "internalType": "address",
          "name": "Erc20Contract",
          "type": "address"
        },
        {
          "internalType": "uint256",
          "name": "Amount",
          "type": "uint256"
        },
        {
          "internalType": "uint256",
          "name": "OrderID",
          "type": "uint256"
        }
      ],
      "name": "makeNftToERC20",
      "outputs": [
        {
          "internalType": "bool",
          "name": "",
          "type": "bool"
        }
      ],
      "stateMutability": "payable",
      "type": "function",
      "payable": true
    },
    {
      "inputs": [
        {
          "internalType": "address",
          "name": "ListerContract",
          "type": "address"
        },
        {
          "internalType": "uint256",
          "name": "ListerID",
          "type": "uint256"
        },
        {
          "internalType": "uint256",
          "name": "OrderID",
          "type": "uint256"
        }
      ],
      "name": "makeNftToETH",
      "outputs": [
        {
          "internalType": "bool",
          "name": "",
          "type": "bool"
        }
      ],
      "stateMutability": "payable",
      "type": "function",
      "payable": true
    },
    {
      "inputs": [
        {
          "internalType": "address",
          "name": "Buyer",
          "type": "address"
        },
        {
          "internalType": "address payable",
          "name": "Reciver",
          "type": "address"
        },
        {
          "internalType": "uint256",
          "name": "OrderID",
          "type": "uint256"
        }
      ],
      "name": "takeOrder",
      "outputs": [
        {
          "internalType": "bool",
          "name": "",
          "type": "bool"
        }
      ],
      "stateMutability": "nonpayable",
      "type": "function"
    }
  ],
  "bytecode": "0x608060405234801561001057600080fd5b50611b51806100206000396000f3fe608060405260043610610067576000357c0100000000000000000000000000000000000000000000000000000000900480631e1833f21461006c57806358dff2dd1461009c57806381930cce146100d9578063b3e60c2f1461011d578063bd028c1f1461015a575b600080fd5b61008660048036038101906100819190611653565b61018a565b604051610093919061199e565b60405180910390f35b3480156100a857600080fd5b506100c360048036038101906100be9190611551565b61032a565b6040516100d0919061199e565b60405180910390f35b3480156100e557600080fd5b5061010060048036038101906100fb91906115a0565b61055f565b604051610114989796959493929190611920565b60405180910390f35b34801561012957600080fd5b50610144600480360381019061013f91906115dc565b610614565b604051610151919061199e565b60405180910390f35b610174600480360381019061016f91906115dc565b610aac565b604051610181919061199e565b60405180910390f35b6000836000803373ffffffffffffffffffffffffffffffffffffffff1673ffffffffffffffffffffffffffffffffffffffff168152602001908152602001600020600084815260200190815260200160002060000160006101000a81548173ffffffffffffffffffffffffffffffffffffffff021916908373ffffffffffffffffffffffffffffffffffffffff160217905550826000803373ffffffffffffffffffffffffffffffffffffffff1673ffffffffffffffffffffffffffffffffffffffff168152602001908152602001600020600084815260200190815260200160002060010181905550346000803373ffffffffffffffffffffffffffffffffffffffff1673ffffffffffffffffffffffffffffffffffffffff16815260200190815260200160002060008481526020019081526020016000206006018190555060036000803373ffffffffffffffffffffffffffffffffffffffff1673ffffffffffffffffffffffffffffffffffffffff1681526020019081526020016000206000848152602001908152602001600020600701819055509392505050565b600060016000808673ffffffffffffffffffffffffffffffffffffffff1673ffffffffffffffffffffffffffffffffffffffff1681526020019081526020016000206000848152602001908152602001600020600701541415610396576103918483610dc6565b610469565b60026000808673ffffffffffffffffffffffffffffffffffffffff1673ffffffffffffffffffffffffffffffffffffffff1681526020019081526020016000206000848152602001908152602001600020600701541415610400576103fb8483610f23565b610468565b60036000808673ffffffffffffffffffffffffffffffffffffffff1673ffffffffffffffffffffffffffffffffffffffff1681526020019081526020016000206000848152602001908152602001600020600701541415610467576104668484846110a1565b5b5b5b6000808573ffffffffffffffffffffffffffffffffffffffff1673ffffffffffffffffffffffffffffffffffffffff1681526020019081526020016000206000838152602001908152602001600020600080820160006101000a81549073ffffffffffffffffffffffffffffffffffffffff021916905560018201600090556002820160006101000a81549073ffffffffffffffffffffffffffffffffffffffff021916905560038201600090556004820160006101000a81549073ffffffffffffffffffffffffffffffffffffffff021916905560058201600090556006820160009055600782016000905550509392505050565b6000602052816000526040600020602052806000526040600020600091509150508060000160009054906101000a900473ffffffffffffffffffffffffffffffffffffffff16908060010154908060020160009054906101000a900473ffffffffffffffffffffffffffffffffffffffff16908060030154908060040160009054906101000a900473ffffffffffffffffffffffffffffffffffffffff16908060050154908060060154908060070154905088565b60003073ffffffffffffffffffffffffffffffffffffffff168673ffffffffffffffffffffffffffffffffffffffff1663081812fc876040518263ffffffff167c01000000000000000000000000000000000000000000000000000000000281526004016106829190611a39565b60206040518083038186803b15801561069a57600080fd5b505afa1580156106ae573d6000803e3d6000fd5b505050506040513d601f19601f820116820180604052508101906106d29190611528565b73ffffffffffffffffffffffffffffffffffffffff1614610728576040517f08c379a000000000000000000000000000000000000000000000000000000000815260040161071f90611a19565b60405180910390fd5b3373ffffffffffffffffffffffffffffffffffffffff168673ffffffffffffffffffffffffffffffffffffffff16636352211e876040518263ffffffff167c01000000000000000000000000000000000000000000000000000000000281526004016107949190611a39565b60206040518083038186803b1580156107ac57600080fd5b505afa1580156107c0573d6000803e3d6000fd5b505050506040513d601f19601f820116820180604052508101906107e49190611528565b73ffffffffffffffffffffffffffffffffffffffff161461083a576040517f08c379a0000000000000000000000000000000000000000000000000000000008152600401610831906119f9565b60405180910390fd5b836000803373ffffffffffffffffffffffffffffffffffffffff1673ffffffffffffffffffffffffffffffffffffffff168152602001908152602001600020600084815260200190815260200160002060000160006101000a81548173ffffffffffffffffffffffffffffffffffffffff021916908373ffffffffffffffffffffffffffffffffffffffff160217905550826000803373ffffffffffffffffffffffffffffffffffffffff1673ffffffffffffffffffffffffffffffffffffffff168152602001908152602001600020600084815260200190815260200160002060010181905550856000803373ffffffffffffffffffffffffffffffffffffffff1673ffffffffffffffffffffffffffffffffffffffff168152602001908152602001600020600084815260200190815260200160002060020160006101000a81548173ffffffffffffffffffffffffffffffffffffffff021916908373ffffffffffffffffffffffffffffffffffffffff160217905550846000803373ffffffffffffffffffffffffffffffffffffffff1673ffffffffffffffffffffffffffffffffffffffff16815260200190815260200160002060008481526020019081526020016000206003018190555060016000803373ffffffffffffffffffffffffffffffffffffffff1673ffffffffffffffffffffffffffffffffffffffff1681526020019081526020016000206000848152602001908152602001600020600701819055507ffd1f2bc7849b99d91f43138892d5b7761a7710c024f7e6b57ea007372743334c848433898987604051610a9b969594939291906118bf565b60405180910390a195945050505050565b6000828473ffffffffffffffffffffffffffffffffffffffff166370a08231336040518263ffffffff167c0100000000000000000000000000000000000000000000000000000000028152600401610b04919061186d565b60206040518083038186803b158015610b1c57600080fd5b505afa158015610b30573d6000803e3d6000fd5b505050506040513d601f19601f82011682018060405250810190610b5491906116cb565b1015610b95576040517f08c379a0000000000000000000000000000000000000000000000000000000008152600401610b8c906119b9565b60405180910390fd5b856000803373ffffffffffffffffffffffffffffffffffffffff1673ffffffffffffffffffffffffffffffffffffffff168152602001908152602001600020600084815260200190815260200160002060000160006101000a81548173ffffffffffffffffffffffffffffffffffffffff021916908373ffffffffffffffffffffffffffffffffffffffff160217905550846000803373ffffffffffffffffffffffffffffffffffffffff1673ffffffffffffffffffffffffffffffffffffffff168152602001908152602001600020600084815260200190815260200160002060010181905550836000803373ffffffffffffffffffffffffffffffffffffffff1673ffffffffffffffffffffffffffffffffffffffff168152602001908152602001600020600084815260200190815260200160002060040160006101000a81548173ffffffffffffffffffffffffffffffffffffffff021916908373ffffffffffffffffffffffffffffffffffffffff160217905550826000803373ffffffffffffffffffffffffffffffffffffffff1673ffffffffffffffffffffffffffffffffffffffff16815260200190815260200160002060008481526020019081526020016000206005018190555060026000803373ffffffffffffffffffffffffffffffffffffffff1673ffffffffffffffffffffffffffffffffffffffff16815260200190815260200160002060008481526020019081526020016000206007018190555095945050505050565b610dd08282611181565b6000808373ffffffffffffffffffffffffffffffffffffffff1673ffffffffffffffffffffffffffffffffffffffff168152602001908152602001600020600082815260200190815260200160002060020160009054906101000a900473ffffffffffffffffffffffffffffffffffffffff1673ffffffffffffffffffffffffffffffffffffffff166323b872dd83336000808773ffffffffffffffffffffffffffffffffffffffff1673ffffffffffffffffffffffffffffffffffffffff1681526020019081526020016000206000868152602001908152602001600020600301546040518463ffffffff167c0100000000000000000000000000000000000000000000000000000000028152600401610eed93929190611888565b600060405180830381600087803b158015610f0757600080fd5b505af1158015610f1b573d6000803e3d6000fd5b505050505050565b610f2d8282611181565b6000808373ffffffffffffffffffffffffffffffffffffffff1673ffffffffffffffffffffffffffffffffffffffff168152602001908152602001600020600082815260200190815260200160002060040160009054906101000a900473ffffffffffffffffffffffffffffffffffffffff1673ffffffffffffffffffffffffffffffffffffffff166323b872dd83336000808773ffffffffffffffffffffffffffffffffffffffff1673ffffffffffffffffffffffffffffffffffffffff1681526020019081526020016000206000868152602001908152602001600020600501546040518463ffffffff167c010000000000000000000000000000000000000000000000000000000002815260040161104a93929190611888565b602060405180830381600087803b15801561106457600080fd5b505af1158015611078573d6000803e3d6000fd5b505050506040513d601f19601f8201168201806040525081019061109c91906116a2565b505050565b8173ffffffffffffffffffffffffffffffffffffffff163373ffffffffffffffffffffffffffffffffffffffff16146110d957600080fd5b6110e38382611181565b8173ffffffffffffffffffffffffffffffffffffffff166108fc6000808673ffffffffffffffffffffffffffffffffffffffff1673ffffffffffffffffffffffffffffffffffffffff1681526020019081526020016000206000848152602001908152602001600020600601549081150290604051600060405180830381858888f1935050505015801561117b573d6000803e3d6000fd5b50505050565b3373ffffffffffffffffffffffffffffffffffffffff166000808473ffffffffffffffffffffffffffffffffffffffff1673ffffffffffffffffffffffffffffffffffffffff168152602001908152602001600020600083815260200190815260200160002060000160009054906101000a900473ffffffffffffffffffffffffffffffffffffffff1673ffffffffffffffffffffffffffffffffffffffff16636352211e6000808673ffffffffffffffffffffffffffffffffffffffff1673ffffffffffffffffffffffffffffffffffffffff1681526020019081526020016000206000858152602001908152602001600020600101546040518263ffffffff167c01000000000000000000000000000000000000000000000000000000000281526004016112b19190611a39565b60206040518083038186803b1580156112c957600080fd5b505afa1580156112dd573d6000803e3d6000fd5b505050506040513d601f19601f820116820180604052508101906113019190611528565b73ffffffffffffffffffffffffffffffffffffffff1614611357576040517f08c379a000000000000000000000000000000000000000000000000000000000815260040161134e906119d9565b60405180910390fd5b6000808373ffffffffffffffffffffffffffffffffffffffff1673ffffffffffffffffffffffffffffffffffffffff168152602001908152602001600020600082815260200190815260200160002060000160009054906101000a900473ffffffffffffffffffffffffffffffffffffffff1673ffffffffffffffffffffffffffffffffffffffff166323b872dd33846000808773ffffffffffffffffffffffffffffffffffffffff1673ffffffffffffffffffffffffffffffffffffffff1681526020019081526020016000206000868152602001908152602001600020600101546040518463ffffffff167c010000000000000000000000000000000000000000000000000000000002815260040161147493929190611888565b600060405180830381600087803b15801561148e57600080fd5b505af11580156114a2573d6000803e3d6000fd5b505050505050565b6000813590506114b981611abf565b92915050565b6000815190506114ce81611abf565b92915050565b6000813590506114e381611ad6565b92915050565b6000815190506114f881611aed565b92915050565b60008135905061150d81611b04565b92915050565b60008151905061152281611b04565b92915050565b60006020828403121561153a57600080fd5b6000611548848285016114bf565b91505092915050565b60008060006060848603121561156657600080fd5b6000611574868287016114aa565b9350506020611585868287016114d4565b9250506040611596868287016114fe565b9150509250925092565b600080604083850312156115b357600080fd5b60006115c1858286016114aa565b92505060206115d2858286016114fe565b9150509250929050565b600080600080600060a086880312156115f457600080fd5b6000611602888289016114aa565b9550506020611613888289016114fe565b9450506040611624888289016114aa565b9350506060611635888289016114fe565b9250506080611646888289016114fe565b9150509295509295909350565b60008060006060848603121561166857600080fd5b6000611676868287016114aa565b9350506020611687868287016114fe565b9250506040611698868287016114fe565b9150509250925092565b6000602082840312156116b457600080fd5b60006116c2848285016114e9565b91505092915050565b6000602082840312156116dd57600080fd5b60006116eb84828501611513565b91505092915050565b6116fd81611a65565b82525050565b61170c81611a89565b82525050565b600061171f602283611a54565b91507f73656e64657220646f6573206e6f74206861766520656e6f7567687420636f6960008301527f6e730000000000000000000000000000000000000000000000000000000000006020830152604082019050919050565b6000611785601e83611a54565b91507f6e6f74206f776e65722c2063616e6e6f7420657863757465206f7264657200006000830152602082019050919050565b60006117c5601e83611a54565b91507f6e6f74206f776e65722c2063616e6e6f7420637265617465206f7264657200006000830152602082019050919050565b6000611805602183611a54565b91507f6e6f7420617070726f7665642c2063616e6e6f7420637265617465206f72646560008301527f72000000000000000000000000000000000000000000000000000000000000006020830152604082019050919050565b61186781611ab5565b82525050565b600060208201905061188260008301846116f4565b92915050565b600060608201905061189d60008301866116f4565b6118aa60208301856116f4565b6118b7604083018461185e565b949350505050565b600060c0820190506118d460008301896116f4565b6118e1602083018861185e565b6118ee60408301876116f4565b6118fb60608301866116f4565b611908608083018561185e565b61191560a083018461185e565b979650505050505050565b600061010082019050611936600083018b6116f4565b611943602083018a61185e565b61195060408301896116f4565b61195d606083018861185e565b61196a60808301876116f4565b61197760a083018661185e565b61198460c083018561185e565b61199160e083018461185e565b9998505050505050505050565b60006020820190506119b36000830184611703565b92915050565b600060208201905081810360008301526119d281611712565b9050919050565b600060208201905081810360008301526119f281611778565b9050919050565b60006020820190508181036000830152611a12816117b8565b9050919050565b60006020820190508181036000830152611a32816117f8565b9050919050565b6000602082019050611a4e600083018461185e565b92915050565b600082825260208201905092915050565b6000611a7082611a95565b9050919050565b6000611a8282611a95565b9050919050565b60008115159050919050565b600073ffffffffffffffffffffffffffffffffffffffff82169050919050565b6000819050919050565b611ac881611a65565b8114611ad357600080fd5b50565b611adf81611a77565b8114611aea57600080fd5b50565b611af681611a89565b8114611b0157600080fd5b50565b611b0d81611ab5565b8114611b1857600080fd5b5056fea2646970667358221220daf1aca3a038200eb62e55ff0ce62499d6808fd368ef0950c9ecad7638c49acb64736f6c63430008000033",
  "immutableReferences": {},
  "source": "// SPDX-License-Identifier: MIT\npragma solidity >=0.4.22 <0.9.0;\n\n\nimport \"./Interface/INftExchange.sol\";\n\nimport \"@openzeppelin/contracts/token/ERC721/IERC721.sol\";\nimport \"@openzeppelin/contracts/token/ERC20/IERC20.sol\";\n\n// For OrderDetials.Type\n\n// 1 = Nft -> Nft\n// 2 = Nft -> Erc20\n// 3 = Nft -> ETH\n\n// 4 = Nft -> Nft + Erc20\n// 5 = Nft -> Nft + Erc20 + ETH\n// 6 = Nft -> Nft + ETH\n// 7 = Nft -> ERC20 + ETH\n\n// 8 = Nft -> Multi *\n\ncontract NftExchange is INftExchange {\n    event newOrder(\n        address ListserTokenAddress,\n        uint256 ListerTokenId,\n        address BuyerAddress,\n        address BuyerTokenAddress,\n        uint256 BuyerTokenId,\n        uint256 OrderID\n    );\n\n    struct OrderDetials {\n        address ListerTokenAddress;\n        uint256 ListerTokenId;\n        address BuyerTokenAddress;\n        uint256 BuyerTokenId;\n        address ERC20Address;\n        uint256 ERC20Amount;\n        uint256 EthAmount;\n        uint256 Type;\n    }\n\n    mapping(address => mapping(uint256 => OrderDetials)) public OrderInfo;\n\n    function makeNftToNft(\n        address BuyerContract,\n        uint256 BuyerID,\n        address ListerContract,\n        uint256 ListerID,\n        uint256 OrderID\n    ) public override returns (bool) {\n        require(\n            IERC721(BuyerContract).getApproved(BuyerID) == address(this),\n            \"not approved, cannot create order\"\n        );\n        require(\n            IERC721(BuyerContract).ownerOf(BuyerID) == msg.sender,\n            \"not owner, cannot create order\"\n        );\n\n        OrderInfo[msg.sender][OrderID].ListerTokenAddress = ListerContract;\n        OrderInfo[msg.sender][OrderID].ListerTokenId = ListerID;\n        OrderInfo[msg.sender][OrderID].BuyerTokenAddress = BuyerContract;\n        OrderInfo[msg.sender][OrderID].BuyerTokenId = BuyerID;\n        OrderInfo[msg.sender][OrderID].Type = 1;\n\n        emit newOrder(\n            ListerContract,\n            ListerID,\n            msg.sender,\n            BuyerContract,\n            BuyerID,\n            OrderID\n        );\n    }\n\n    function makeNftToERC20(\n        address ListerContract,\n        uint256 ListerID,\n        address Erc20Contract,\n        uint256 Amount,\n        uint256 OrderID\n    ) public override payable returns (bool) {\n        //Add Check to make sure Erc20Contract address passes is Valid\n        require(\n            IERC20(Erc20Contract).balanceOf(msg.sender) >= Amount,\n            \"sender does not have enought coins\"\n        );\n\n        OrderInfo[msg.sender][OrderID].ListerTokenAddress = ListerContract;\n        OrderInfo[msg.sender][OrderID].ListerTokenId = ListerID;\n        OrderInfo[msg.sender][OrderID].ERC20Address = Erc20Contract;\n        OrderInfo[msg.sender][OrderID].ERC20Amount = Amount;\n        OrderInfo[msg.sender][OrderID].Type = 2;\n    }\n\n    function makeNftToETH(\n        address ListerContract,\n        uint256 ListerID,\n        uint256 OrderID\n    ) public override payable returns (bool) {\n        OrderInfo[msg.sender][OrderID].ListerTokenAddress = ListerContract;\n        OrderInfo[msg.sender][OrderID].ListerTokenId = ListerID;\n        OrderInfo[msg.sender][OrderID].EthAmount = msg.value;\n        OrderInfo[msg.sender][OrderID].Type = 3;\n    }\n\n    function takeOrder(address Buyer, address payable Reciver, uint256 OrderID)\n        public\n        override\n        returns (bool)\n    {\n        if (OrderInfo[Buyer][OrderID].Type == 1) {\n            _takeNftToNft(Buyer, OrderID);\n        } else if (OrderInfo[Buyer][OrderID].Type == 2) {\n            _takeNftToErc20(Buyer, OrderID);\n        } else if (OrderInfo[Buyer][OrderID].Type == 3) {\n            _takeNftToEth(Buyer, Reciver, OrderID);\n        }\n\n        delete OrderInfo[Buyer][OrderID];\n    }\n\n    function _transferListerNft(address _buyer, uint256 _orderID) internal {\n        require(\n            IERC721(OrderInfo[_buyer][_orderID].ListerTokenAddress).ownerOf(\n                OrderInfo[_buyer][_orderID].ListerTokenId\n            ) == msg.sender,\n            \"not owner, cannot excute order\"\n        );\n\n        IERC721(OrderInfo[_buyer][_orderID].ListerTokenAddress).transferFrom(\n            msg.sender,\n            _buyer,\n            OrderInfo[_buyer][_orderID].ListerTokenId\n        );\n    }\n\n    function _takeNftToEth(address _buyer, address payable _reciver, uint256 _orderID) internal {\n        require(msg.sender == _reciver);\n        _transferListerNft(_buyer, _orderID);\n\n        _reciver.transfer(OrderInfo[_buyer][_orderID].EthAmount);\n    }\n\n    function _takeNftToNft(address _buyer, uint256 _orderID) internal {\n        _transferListerNft(_buyer, _orderID);\n\n        IERC721(OrderInfo[_buyer][_orderID].BuyerTokenAddress).transferFrom(\n            _buyer,\n            msg.sender,\n            OrderInfo[_buyer][_orderID].BuyerTokenId\n        );\n    }\n\n    function _takeNftToErc20(address _buyer, uint256 _orderID) internal {\n        _transferListerNft(_buyer, _orderID);\n\n        IERC20(OrderInfo[_buyer][_orderID].ERC20Address).transferFrom(\n            _buyer,\n            msg.sender,\n            OrderInfo[_buyer][_orderID].ERC20Amount\n        );\n    }\n}",
  "sourcePath": "/Users/klongrich/myfiles/eth/nft_exchange/contracts/NftExchange.sol",
  "compiler": {
    "name": "solc",
    "version": "0.8.0+commit.c7dfd78e.Linux.g++"
  },
  "schemaVersion": "3.4.1",
  "updatedAt": "2021-05-26T22:28:34.602Z",
  "networkType": "ethereum",
  "devdoc": {
    "kind": "dev",
    "methods": {
      "makeNftToERC20(address,uint256,address,uint256,uint256)": {
        "details": "Creates an Offer of One NFT for a static amount of ERC20 tokens  ",
        "params": {
          "Amount": "The total number of ERC20 tokens being offered",
          "Erc20Contract": "Address of the ERC20 Token that is being offered",
          "ListerContract": "Address of the NFT that is Listed or Being asked for.",
          "ListerID": "ID of the NFT that is Listed or Being asked for.",
          "OrderID": "Unqiue number that will save the order on chain. Emits: "
        }
      },
      "makeNftToETH(address,uint256,uint256)": {
        "details": "Creates an Offer of One NFT for a static amount of ERC20 tokens  ",
        "params": {
          "ListerContract": "Address of the NFT that is Listed or Being asked for.",
          "ListerID": "ID of the NFT that is Listed or Being asked for.",
          "OrderID": "Unqiue number that will save the order on chain. Emits: "
        }
      },
      "makeNftToNft(address,uint256,address,uint256,uint256)": {
        "details": "Creates an Offer of One NFT for One other NFT  ",
        "params": {
          "BuyerContract": "Address of the NFT being preposed to the lister.",
          "BuyerID": "ID of the NFT being preposed to the lister.",
          "ListerContract": "Address of the NFT that is Listed or Being asked for.",
          "ListerID": "ID of the NFT that is Listed or Being asked for.",
          "OrderID": "Unqiue number that will save the order on chain. Emits: "
        }
      },
      "takeOrder(address,address,uint256)": {
        "details": "Triggers the trasnfer of assests for between the two parties once aggreed upon terms are matched. This is only callable by the person who owns the NFT that is being asked for.",
        "params": {
          "Buyer": "Address of the person submiting the offer",
          "OrderID": "Unqiue ID that is given the the order stored on chain Emits: "
        }
      }
    },
    "version": 1
  },
  "userdoc": {
    "kind": "user",
    "methods": {},
    "version": 1
  }
}